:100000000C94C5040C94ED040C94ED040C94ED04D4
:100010000C94ED040C94ED040C94ED040C94ED049C
:100020000C94ED040C94ED040C9499080C942B079B
:100030000C94ED040C94ED040C94ED040C94ED047C
:100040000C94ED040C94C6190C94ED040C94ED047E
:100050000C94ED040C94ED040C94ED040C943C0908
:100060000C94ED040C94ED040C94ED040C94ED044C
:100070000C94ED040C94ED040C94ED040C94ED043C
:100080000C947E190C94ED040C94ED040C94ED0486
:100090000C94ED040C94ED040C94ED040C94ED041C
:1000A0000C94ED040C94ED040C94ED04201C231C22
:1000B000121C161C1C1C441C441C441C271C2B1CFE
:1000C0002F1C351C391C441C3F1C12010002EF027E
:1000D00001404123368000010102030112010002A8
:1000E00000000040412336800001010203014172FB
:1000F0006475696E6F204C4C430055534220494F44
:1001000020426F6172640004030904080B000202BC
:100110000201000904000001020200000524001091
:10012000010524010101042402060524060001073B
:1001300005810310004009040100020A00000007C5
:10014000050202400000070583024000000808F095
:10015000909090909090F01805FFFFFF49249249ED
:100160002492492492FFFFFF1804000000FFFFFFC4
:10017000492492FFFFFF1804FFFFFF4924924924FE
:1001800092FFFFFF1804FFFFFF800001800001FFC6
:10019000FFFF1808000000DB6D80DB6D80DB6D80E9
:1001A000DB6D80000000DB6D80DB6D8018080000D7
:1001B00000DB6C00DB6C00DB6C00DB6C0000000023
:1001C000DB6D80DB6D801808000000DB6000DB6009
:1001D00000DB6000DB6000000000DB6D80DB6D8019
:1001E0001808000000DB0000DB0000DB0000DB0083
:1001F00000000000DB6D80DB6D801808000000D877
:100200000000D80000D80000D80000000000DB6D1E
:1002100080DB6D801808000000C00000C00000C036
:100220000000C00000000000DB6D80DB6D8018085E
:1002300000000000000000000000000000000000BE
:100240000000DB6D80DB6D8008083838185E7B1895
:100250007C6608083838181C3ED83C0C080838382A
:10026000083EDB18386E08081C1C187ADE183E663B
:1002700008081C1C18387C1B3C3008081C1C107C0F
:10028000DB181C7618042492487FFFFFFFFFFE1244
:1002900049241804124924FFFFFE7FFFFF249248DF
:1002A00018044924927FFFFE7FFFFE492492180420
:1002B000124924FFFFFE7FFFFF2492481804249276
:1002C000487FFFFFFFFFFE12492418044924927F54
:1002D000FFFE7FFFFE49249201010103030507078A
:1002E0000808080808080707050303010101FFFFC4
:1002F000FFFDFDFBF9F9F8F8F8F8F8F8F9F9FBFD5E
:10030000FDFFFFFFD5F08D14A1C881CFD9F1AF203B
:100310000000000000003E5B4F5B3E3E6B4F6B3EBB
:100320001C3E7C3E1C183C7E3C181C577D571C1CF8
:100330005E7F5E1C00183C1800FFE7C3E7FF001853
:10034000241800FFE7DBE7FF30483A060E2629793C
:100350002926407F050507407F05253F5A3CE73C9D
:100360005A7F3E1C1C08081C1C3E7F14227F22144E
:100370005F5F005F5F06097F017F006689956A60A5
:100380006060606094A2FFA29408047E04081020BC
:100390007E201008082A1C08081C2A08081E1010B5
:1003A00010100C1E0C1E0C30383E3830060E3E0E5F
:1003B00006000000000000005F00000007000700CA
:1003C000147F147F14242A7F2A12231308646236B0
:1003D000495620500008070300001C22410000413C
:1003E000221C002A1C7F1C2A08083E080800807076
:1003F00030000808080808000060600020100804A9
:10040000023E5149453E00427F40007249494946FB
:100410002141494D331814127F1027454545393C79
:100420004A49493141211109073649494936464966
:1004300049291E0000140000004034000000081488
:100440002241141414141400412214080201590901
:10045000063E415D594E7C1211127C7F4949493656
:100460003E414141227F4141413E7F494949417FCF
:10047000090909013E414151737F0808087F004185
:100480007F41002040413F017F081422417F4040CE
:1004900040407F021C027F7F0408107F3E414141A3
:1004A0003E7F090909063E4151215E7F091929460F
:1004B000264949493203017F01033F4040403F1F25
:1004C0002040201F3F4038403F631408146303045A
:1004D0007804036159494D43007F414141020408BA
:1004E0001020004141417F0402010204404040408D
:1004F00040000307080020545478407F28444438C3
:100500003844444428384444287F3854545418000C
:10051000087E090218A4A49C787F0804047800448B
:100520007D40002040403D007F1028440000417F76
:1005300040007C047804787C0804047838444444FF
:1005400038FC1824241818242418FC7C08040408F7
:10055000485454542404043F44243C4040207C1C10
:100560002040201C3C4030403C44281028444C9003
:1005700090907C4464544C4400083641000000775D
:100580000000004136080002010204023C26232636
:100590003C1EA1A161123A4040207A38545455596A
:1005A00021555579412154547841215554784020A2
:1005B000545579400C1E52721239555555593954BB
:1005C00054545939555454580000457C4100024553
:1005D0007D420001457C40F0292429F0F02825289F
:1005E000F07C545545002054547C547C0A097F49C2
:1005F00032494949323248484832324A4848303A0A
:100600004141217A3A42402078009DA0A07D3944A2
:100610004444393D4040403D3C24FF2424487E4929
:1006200043662B2FFC2F2BFF0929F620C0887E095B
:100630000320545479410000447D413048484A32F7
:10064000384040227A007A0A0A727D0D19317D26DF
:1006500029292F28262929292630484D40203808C5
:1006600008080808080808382F10C8ACBA2F102846
:1006700034FA00007B000008142A142222142A14E1
:10068000089500220095AA005500AAAA55AA55AAC5
:10069000000000FF00101010FF00141414FF0010E1
:1006A00010FF00FF1010F010F0141414FC001414CC
:1006B000F700FF0000FF00FF1414F404FC141417EB
:1006C000101F10101F101F1414141F00101010F012
:1006D000000000001F101010101F10101010F0105C
:1006E000000000FF101010101010101010FF10006C
:1006F0000000FF140000FF00FF00001F10170000A3
:10070000FC04F414141710171414F404F40000FF7C
:1007100000F714141414141414F700F71414141715
:100720001410101F101F141414F4141010F010F0F3
:1007300000001F101F0000001F14000000FC140028
:1007400000F010F01010FF10FF141414FF1410101C
:10075000101F00000000F010FFFFFFFFFFF0F0F09F
:10076000F0F0FFFFFF0000000000FFFF0F0F0F0F72
:100770000F38444438447C2A2A3E147E020206067E
:10078000027E027E0263554941633844443C044082
:100790007E201E2006027E020299A5E7A5991C2A4A
:1007A000492A1C4C7201724C304A4D4D3030487809
:1007B0004830BC625A463D3E494949007E0101012C
:1007C0007E2A2A2A2A2A44445F444440514A44400B
:1007D00040444A51400000FF0103E080FF00000850
:1007E000086B6B083612362436060F090F06000018
:1007F00018180000001010003040FF0101001F0118
:10080000011E00191D1712003C3C3C3C000000007A
:100810000010001100120013001500160017001838
:10082000001A001C001D001F0021002300250027C6
:100830000029002C002E003100340037003A003E21
:10084000004100450049004E00520057005C006224
:100850000068006E0075007B0083008B0093009C95
:1008600000A500AF00B900C400D000DC00E900F72B
:100870000006011501260137014A015D0172018858
:10088000019F01B801D201EE010B022A024B026E58
:10089000029302BA02E40210033F037003A403DCD4
:1008A00003170455049704DD0427057505C80520C2
:1008B000067D06E0064907B8072D08A9082D09B9E5
:1008C000094D0AEA0A900B400CFA0CC00D910E6F0C
:1008D0000F5A1053115B1272139A14D415201780FB
:1008E00018F519801B231DDE1EB420A622B524E4B2
:1008F000263429A72B402E0031EA330037453ABC75
:100900003D68414C456B49C84D68524F57805C006B
:10091000620000000200090F0000030401000C0047
:1009200000000000000000000000000000000004C3
:1009300008020110408040102040804080080204DE
:100940000180402010020110801020404004040467
:100950000404030405020202020403020202020666
:100960000606060606040402020204000000002532
:100970000028002B002E003100000000002400277A
:10098000002A002D003000001A0B11241FBECFEFEB
:10099000DAE0DEBFCDBF11E0A0E0B1E0E4E0FEE3CD
:1009A00002C005900D92A23DB107D9F727E0A2ED54
:1009B000B1E001C01D92A231B207E1F719E0CAE827
:1009C000D9E004C02297FE010E94B81EC838D107A2
:1009D000C9F70E94F0040C94001F0C9400000895C5
:1009E0000E94DD090E94EF0482ED91E00E941C0943
:1009F0000E942F09C0E0D0E00E9433092097E1F364
:100A00000E940000F9CF615030F02091F100FC010C
:100A100020830196F8CF289884E68093DB0108951F
:100A20004091D6015091D7012091D4013091D50148
:100A300042175307B4F49091E8009570E1F3909158
:100A4000E80092FD19C08093F1008091D601909149
:100A5000D70101968F739927892B19F48EEF809314
:100A6000E8008091D6019091D70101969093D7012B
:100A70008093D60181E0089580E00895CF92DF92BF
:100A8000EF92FF920F931F93CF93DF931F92CDB7F7
:100A9000DEB7082F162FF42E862F880F8E5F9983CE
:100AA0000E94100583E00E941005E02EC02E99815F
:100AB000D92E8C2D8E19811798F4F601F7FE02C0FD
:100AC000849101C080810E941005082F80E00E945F
:100AD00010058023FFEFCF1ADF0A8111EACF01C092
:100AE00081E00F90DF91CF911F910F91FF90EF90D8
:100AF000DF90CF9008958091D70081608093D700D8
:100B000080EA8093D80089B5806189BD89B582600B
:100B100089BD09B400FEFDCF61E070E080E090E0A7
:100B20000E94B5098091D8008F7C80618093D800A5
:100B30008091E000807F8093E0000895CF93DF9361
:100B40001F92CDB7DEB71982CE0101960E94900A9E
:100B50000E94BE0BBE016F5F7F4F0E94370B8981E1
:100B60000F90DF91CF9108952FB7FC012083F89467
:100B700067706093E9000895CF93DF931F92CDB71C
:100B8000DEB7682FCE0101960E94B4058091F20075
:100B900099819FBF0F90DF91CF910895FF920F939E
:100BA0001F93CF93DF9300D0CDB7DEB7F62E8A0127
:100BB0009091DA01992311F057FF03C08FEF9FEF57
:100BC0002BC0682FCE0101967A830E94B4058091D4
:100BD000F20090E0A8017A81801791070CF4AC0133
:100BE000EF2DF72FF40E84E6FE1639F02898809347
:100BF000DB019091F1009193F7CF4115510521F060
:100C00008091F200882321F089818FBFCA0104C03E
:100C10008BE68093E800F8CF0F900F90DF91CF9193
:100C20001F910F91FF900895CF93DF931F92CDB73F
:100C3000DEB741E050E0BE016F5F7F4F0E94CE05FE
:100C4000019719F4898190E002C08FEF9FEF0F9018
:100C5000DF91CF910895CF93DF931F92CDB7DEB789
:100C6000682FCE0101960E94B4059091E800892F6B
:100C7000807295FF04C09091F20080E4891B9981F5
:100C80009FBF0F90DF91CF9108956F927F928F92C7
:100C90009F92AF92BF92CF92DF92EF92FF920F930B
:100CA0001F93CF93DF931F92CDB7DEB7782E7B01D2
:100CB000C42EB52E8091DA01882369F0042F152FF8
:100CC0008AEFD82E872D8072982E9AE3A92E872D31
:100CD0008074882E11C08FEF9FEF57C0872D0E9420
:100CE0002B06682E81110CC0DA94A9F361E070E044
:100CF00080E090E00E94B5090115110579F73BC02D
:100D0000282F30E0021713070CF4602E672DCE0158
:100D100001960E94B4058091E80085FF29C0262D28
:100D200030E0021B130B992039F06A948FEF68169C
:100D3000B1F01092F100F9CFF701862D77FE07C0D0
:100D4000815058F094919093F1003196F9CF8150F1
:100D500020F091919093F100FACFE20EF31E809172
:100D6000E80085FF0FC00115110511F481100AC0BC
:100D700089818FBFC1CF5D9884E68093DC018C2D83
:100D80009B2D03C0A092E800F3CF0F90DF91CF918D
:100D90001F910F91FF90EF90DF90CF90BF90AF9099
:100DA0009F908F907F906F9008951092E90010921D
:100DB000D7011092D6019093D5018093D401089564
:100DC000CF92DF92FF920F931F93CF93DF9300D0C8
:100DD000CDB7DEB7F82E8A016B0101151105B1F010
:100DE000F601F7FE02C0849101C0808149835A83D5
:100DF0000E94100501501109FFEFCF1ADF0A498147
:100E00005A818111EACF8FEF9FEF01C0CA010F9085
:100E10000F90DF91CF911F910F91FF90DF90CF90B6
:100E200008951F93CF93DF931F92CDB7DEB7162F90
:100E30002091E80022FFFCCF612F79830E940305F7
:100E40008BEF8093E800812F7981972F0F90DF91AE
:100E5000CF911F9108951F920F920FB60F921124F8
:100E6000DF92EF92FF920F931F932F933F934F9335
:100E70005F936F937F938F939F93AF93BF93EF9302
:100E8000FF93CF93DF93CDB7DEB76C97DEBFCDBFB7
:100E90001092E9008091E80083FF23C168E0CE0151
:100EA00045960E94030582EF8093E8003D8937FF55
:100EB00005C08091E80080FFFCCF03C08EEF8093D7
:100EC000E800832F807609F0F0C02E894F89D88CF6
:100ED00021110CC0303829F48091D9018093F100A0
:100EE00002C01092F1001092F100F4C0842F90E043
:100EF0009D29213049F43111EDC0019709F0EAC074
:100F00008091D9018D7F0AC0233059F43111E2C09C
:100F1000019709F0DFC08091D90182608093D901E7
:100F2000D9C0253041F48091E80080FFFCCF4068B3
:100F30004093E300CFC0263009F08DC0EB8CFC8CD1
:100F400022E0D2122CC080E090E00E94D5060E94E0
:100F50009E0599E08E010F5F1F4FF801292F119216
:100F60002A95E9F79983DA8291E09E8390EA98873F
:100F70009AEF99872091D6013091D701275F3F4F93
:100F80003C832B838D83C7010E94D50649E050E046
:100F9000B80180E00E94E0060E949E059BC0C70148
:100FA0000E94D5060E94BE0BBE016B5E7F4F0E9461
:100FB000600B009719F00CF08DC090C081E0D81242
:100FC0000EC08B8D9C8D089719F481E08093D3011E
:100FD0008091D30181112FC06CED70E031C0E3E04E
:100FE000DE127CC08F89882349F1823029F440E8E1
:100FF0006CE08AEF90E01CC0813029F440E86BE09F
:101000008EEE90E015C0833009F068C00E94BE0BE0
:101010008E010F5F1F4FB8010E947F0BF8010190F6
:101020000020E9F73197E01BF10B40E06E2FC8017B
:101030000E943E054DC06AEC70E002C067E071E0BE
:101040006115710509F44AC0FB01449150E080E844
:101050000E94E0063FC0273009F440C0283021F448
:1010600081E08093F10036C02930A1F53370B1F5ED
:10107000E1E0F1E081E021E036E39081992361F045
:101080008093E9002093EB0091919093EC003093D2
:10109000ED008F5F873089F78EE78093EA0010922A
:1010A000EA008F898093DA0115C08B8D9C8D0E9498
:1010B000D506898D811105C0CE0145960E949B0AF7
:1010C00007C00E94BE0BBE016B5E7F4F0E949E0B4D
:1010D000882321F08EEF8093E80003C081E28093A3
:1010E000EB006C960FB6F894DEBF0FBECDBFDF915C
:1010F000CF91FF91EF91BF91AF919F918F917F9190
:101100006F915F914F913F912F911F910F91FF90A0
:10111000EF90DF900F900FBE0F901F901895809367
:10112000E9008091F200882319F08AE38093E800B7
:1011300008951F920F920FB60F9211242F933F9391
:101140004F935F936F937F938F939F93AF93BF93CF
:10115000CF93EF93FF93C091E1008091E100837FF3
:101160008093E1008093E100C3FF0FC01092E9007B
:1011700081E08093EB001092EC0082E38093ED001D
:101180001092DA0188E08093F000C2FF19C083E07A
:101190000E948F088091DC01882339F08091DC0166
:1011A00081508093DC01882389F18091DB018823C1
:1011B00039F08091DB0181508093DB01882341F17C
:1011C000C4FF10C08091E2008E7E81608093E200B7
:1011D0008091E1008F7E8093E1008091D8018E7E26
:1011E000806111C0C0FF16C08091E2008E7E8061D8
:1011F0008093E2008091E1008E7E8093E1008091F7
:10120000D8018E7E81608093D80104C05D9ACDCFD5
:10121000289AD6CFFF91EF91CF91BF91AF919F9137
:101220008F917F916F915F914F913F912F910F908F
:101230000FBE0F901F9018951092DA011092D901ED
:101240001092D8010E947B05E1EEF0E080818E7E55
:1012500080838DE08093E200559A209A08950E9441
:10126000D20B0C94150C0E94000C882321F00E94D4
:101270006B0C0C94110C08951F920F920FB60F92E5
:1012800011242F933F938F939F93AF93BF9380919C
:10129000DE019091DF01A091E001B091E101309178
:1012A000DD0123E0230F2D3720F40196A11DB11D90
:1012B00005C026E8230F0296A11DB11D2093DD0174
:1012C0008093DE019093DF01A093E001B093E101F0
:1012D0008091E2019091E301A091E401B091E501D8
:1012E0000196A11DB11D8093E2019093E301A093AB
:1012F000E401B093E501BF91AF919F918F913F9130
:101300002F910F900FBE0F901F9018952FB7F89444
:101310006091DE017091DF018091E0019091E10127
:101320002FBF08953FB7F8948091E2019091E301B7
:10133000A091E401B091E50126B5A89B05C02F3F1F
:1013400019F00196A11DB11D3FBF6627782F892F87
:101350009A2F620F711D811D911D42E0660F771F4C
:10136000881F991F4A95D1F70895CF92DF92EF9287
:10137000FF92CF93DF936B017C010E949209EB01F6
:10138000C114D104E104F10489F00E9461110E94AA
:1013900092096C1B7D0B683E734090F381E0C81A84
:1013A000D108E108F108C851DC4FEACFDF91CF91B5
:1013B000FF90EF90DF90CF900895789484B582608D
:1013C00084BD84B5816084BD85B5826085BD85B5E9
:1013D000816085BDEEE6F0E0808181608083E1E898
:1013E000F0E01082808182608083808181608083D0
:1013F000E0E8F0E0808181608083E1E9F0E08081D5
:1014000082608083808181608083E0E9F0E0808178
:1014100081608083E1ECF0E0808184608083808162
:1014200082608083808181608083E3ECF0E0808152
:1014300081608083E0ECF0E0808182608083E2EC78
:10144000F0E0808181608083EAE7F0E08081846061
:1014500080838081826080838081816080838081BD
:10146000806880830895CF93DF931F92CDB7DEB756
:101470006983DC01ED91FC910280F381E02D41E074
:1014800050E0BE016F5F7F4F09950F90DF91CF91C4
:101490000895CF93DF93EC018C859D8597FF05C060
:1014A00082E00E9414069D878C878C859D85DF9144
:1014B000CF91089583E00C948F08FC018485958575
:1014C00097FD06C082E00E94BC0590E00196089559
:1014D00082E00E94BC0590E00895FC01848595851A
:1014E00097FD05C02FEF3FEF35872487089582E0F1
:1014F0000C941406CF93DF93EC01809112018823A2
:1015000031F083E00E9445061816190634F081E098
:1015100090E09B838A8380E090E0DF91CF910895F3
:10152000FC0120812E5F208342E450E06BE071E0FB
:1015300080E80C94E006FC0121818081813A59F415
:10154000213209F05CC047E050E06BE071E080E0E0
:101550000E94E00667C0813209F051C0233289F44D
:10156000838190E0982F88273281832BA0E0B0E020
:101570008093070190930801A0930901B0930A0199
:101580000FC0203239F467E070E08BE091E00E94F8
:1015900011070AC0223221F482818093120104C013
:1015A0002D7F203209F03EC080910B0190910C01FB
:1015B000A0910D01B0910E01803B9440A105B105B1
:1015C00001F58091120180FD1CC08091000890916E
:1015D00001089093FF0A8093FE0A87E797E79093AC
:1015E0000108809300082BE088E190E00FB6F894A2
:1015F000A895809360000FBE2093600013C080E028
:10160000089588E10FB6F89480936000109260000E
:101610000FBEA8958091FE0A9091FF0A9093010851
:101620008093000881E008952FEF3FEFFC0135879C
:10163000248708951092E9011092E80188EE93E062
:10164000A0E0B0E08093EA019093EB01A093EC015D
:10165000B093ED0183E491E09093E7018093E6017C
:101660008FEF9FEF9093F3018093F2010895EF9233
:10167000FF920F931F93CF93DF937B01FC01C281F5
:10168000D38100E010E0209781F0E881F9810280A9
:10169000F381E02DB701CE01099597FD08C0080F31
:1016A000191F0884D985C02DEECFC80102C08FEF65
:1016B0009FEFDF91CF911F910F91FF90EF900895D1
:1016C0000F931F93CF93DF938B01FC01C281D381D2
:1016D000209771F0E881F9810480F581E02DB8014F
:1016E000CE010995009731F40884D985C02DF0CF3B
:1016F00080E090E0DF91CF911F910F9108950F93BB
:101700001F93CF93DF938B01FC01C281D38120977C
:1017100071F0E881F9810680F781E02DB801CE01F2
:101720000995080F111D0884D985C02DF0CFF80147
:101730001082DF91CF911F910F9108950F931F9306
:10174000CF93DF938B01FC01C281D381209771F08D
:10175000E881F9810190F081E02DB801CE01099571
:10176000811106C00884D985C02DF0CF80E001C06A
:1017700081E0DF91CF911F910F91089580913A02FE
:1017800081110DC082E08093360284E0809337029D
:10179000109239021092380281E080933A0286E377
:1017A00092E00895E4E6F0E08081806480838081A7
:1017B0008160808380818068808380818260808373
:1017C000E5E6F0E08081816080830E9496140E94AB
:1017D000A0130E94C2170E9418130E941E140E9498
:1017E0008E140E94B4160C94301183B7817F83BF8E
:1017F00083B7816083BF889583B78E7F83BF089549
:10180000CF93DF931F92CDB7DEB70E94B713882323
:1018100021F089830E943D1489810F90DF91CF913F
:1018200008950E9418150C947A1541E050E060E08C
:1018300082E492E00C9462110E94840E0E94A41033
:101840000E940E1A0E94DB0C0E94850C0E94381127
:1018500081E08093420208950E94800F0E94EC0D67
:101860000E94041C0E94F90E0E94CF1B0E94881443
:1018700084FD109242020E94D71B811104C00E9475
:101880009F0E882319F082E08093420208950E94FF
:10189000800F0E94EC0D0E94041C0E94D71B88231D
:1018A00019F08FE491E002C089E591E09F938F9356
:1018B00084E08F9386E08F930E944B150F900F90DA
:1018C0000F900F900E948814867021F00E943F0EA6
:1018D00010924202089580914202813039F020F046
:1018E000823031F40C94470C0C941C0C0C942C0C8E
:1018F0001F928F938FE991E09F938F930E94F21232
:101900000F900F900F900F90089545E050E060E029
:1019100083E492E00C9462118D3024F0843424F03E
:1019200094E003C091E001C092E080914302E82F6F
:10193000F0E0ED5BFD4F91838F5F837080934302F6
:1019400008958091450290914402892B909146021E
:10195000892B90914702892B80FD05C063E070E0E0
:1019600080E090E01EC081FD0BC063E070E080E08D
:1019700090E00E949E17675F7F4F8F4F9F4F17C069
:1019800082FD0BC063E070E080E090E00E949E1753
:101990006F5E7F4F8F4F9F4F0AC063E170E080E022
:1019A00090E00E949E176F5F7F4F8F4F9F4F862F53
:1019B000880F880F089508954DE451E00C94851523
:1019C00044E851E00C941316CF93DF9300D01F929C
:1019D000CDB7DEB74330C8F01F9291E49F9323E662
:1019E00031E03F932F932BE631E03F932F934B83CE
:1019F0006A8389830E94F2120F900F900F900F90CC
:101A00000F900F9089816A814B81E42FF0E0EE0FF7
:101A1000FF1FE95DFE4F408151810F900F900F90A5
:101A2000DF91CF910C941316CF93DF9300D01F92C8
:101A3000CDB7DEB74330C8F01F9298E49F9323E6FA
:101A400031E03F932F932BE631E03F932F934B836D
:101A50006A8389830E94F2120F900F900F900F906B
:101A60000F900F9089816A814B81E42FF0E0EE0F97
:101A7000FF1FE35DFE4F408151810F900F900F904B
:101A8000DF91CF910C941316CF93DF9300D01F9268
:101A9000CDB7DEB74330C8F01F929FE49F9323E693
:101AA00031E03F932F932BE631E03F932F934B830D
:101AB0006A8389830E94F2120F900F900F900F900B
:101AC0000F900F9089816A814B81E42FF0E0EE0F37
:101AD000FF1FEF5DFE4F408151810F900F900F90DF
:101AE000DF91CF910C941316CF93DF9300D000D0E9
:101AF000CDB7DEB74330D8F01F9296E59F93A3E6AB
:101B0000B1E0BF93AF93ABE6B1E0BF93AF932C834B
:101B10004B836A8389830E94F2120F900F900F907B
:101B20000F900F900F9089816A814B812C81E42F57
:101B3000F0E0EE0FFF1F12161CF4E75CFE4F02C030
:101B4000ED5CFE4F408151810F900F900F900F90F0
:101B5000DF91CF910C941316CF93DF931F92CDB7E3
:101B6000DEB78730A8F01F9294E69F9323E631E01A
:101B70003F932F932AE731E03F932F9389830E946D
:101B8000F2120F900F900F900F900F900F9089818D
:101B9000E82FF0E0EE0FFF1FED5EFE4F4081518118
:101BA00068E38AE60F90DF91CF910C94851580E170
:101BB00090E00E941F130E9440136115710581057A
:101BC000910511F00E94BC1680E190E00E941F1365
:101BD0000E94C2160C9484131F93CF93DF9389E85D
:101BE00091E09F938F931F9215E11F930E944B15D5
:101BF0008EE891E09F938F9382E08F931F930E94D2
:101C00004B1583E991E09F938F9384E08F931F930B
:101C10000E944B15E8E4F2E081818F9380818F93DD
:101C2000C8E9D1E0DF93CF9381E08F931F930E94A7
:101C30004B15EAE4F2E081818F9380818F93DF93EB
:101C4000CF9383E08F931F930E944B15ECE4F2E057
:101C500081818F9380818F93DF93CF9385E08F93E2
:101C60001F930E944B158DB79EB74E960FB6F894F2
:101C70009EBF0FBE8DBFDF91CF911F9108958091C0
:101C80004A0290914B0220914802309149028217FA
:101C90009307D0F0909349028093480280E090E04F
:101CA0000E941F138EE40E94651383E50E94651352
:101CB0008DE20E94651384E50E94651380914802BD
:101CC000909149020C947513089510924902109254
:101CD000480280E090E00E941F130E9424138E347B
:101CE00091F40E942413833571F40E9424138D32E1
:101CF00051F40E942413843531F40E9433139093DD
:101D0000490280934802089546E050E060E088E48C
:101D100092E00E9462110E94D70D0C94650EEAE4D5
:101D2000F2E0808191810196918380830895ECE4B3
:101D3000F2E080819181019691838083089581E012
:101D400020914A0230914B022E31310508F480E097
:101D50000895CF93DF93CFE4D2E0A2E5B2E080E034
:101D600090E02881222331F1FD013297208121303A
:101D700079F4E091B102F0E0E852FD4F2491FC01CA
:101D8000E25BFD4F3581230FFD01319720830EC0AB
:101D9000223061F4E091B102F0E0E852FD4F24916D
:101DA000FC01E25BFD4F3681230F2C932C912834EC
:101DB0000CF018820696269616968036910589F6BE
:101DC000DF91CF91089586E00E94AE13882381F0C1
:101DD0008091B0028F5F63E00E94551E9093B00225
:101DE0008091B1028F5F6CE20E94551E9093B10208
:101DF00008950E94A90E0C94E30E1F93CF93DF93D6
:101E000000D0CDB7DEB7182F4A8369830E948C0CAF
:101E10002EE432E0D901EC91B6E0EB9FF001112401
:101E2000E15BFD4F81E080834A814183128314830B
:101E3000698163836583F90180818F5F8F708083FF
:101E40000F900F90DF91CF911F910895CF93C09184
:101E5000AF02C850C03454F46C2F80E00E94DC0CF8
:101E60006C2F84E60E94DC0CC85FF4CFCF910895FC
:101E70000F931F93CF93DF93C0E0D0E00CE911E004
:101E8000FE01E25BFD4F8181882389F182818330ED
:101E900081F050F08430A1F08530C9F440E06481D5
:101EA00083810E94440D23C0648183810E94E00CE1
:101EB0001EC04091B002648183810E94E40C17C06F
:101EC0004091B002648183810E94140D10C01F9262
:101ED0008F9380914E021F928F931F930F930E94B6
:101EE000F2120F900F900F900F900F900F90269678
:101EF000C036D10529F6DF91CF911F910F9108953A
:101F00000E94260F0C94380FAF92CF92EF92FF925F
:101F10000F931F93772767FD7095FF24E7FCF094DC
:101F2000F701EA0DF11DA7FCFA956E177F07F4F48F
:101F3000620F711D27FD7A95E616F706BCF4992706
:101F400087FD9095112707FD109598012C0D311DE7
:101F5000C7FC3A95821793074CF49C01240F311D5E
:101F600047FD3A9581E0021713070CF080E01F91BE
:101F70000F91FF90EF90CF90AF900895992787FD34
:101F8000909526E0429FF0011124E25BFD4F2381F2
:101F9000332727FD3095A901485E5F4F84179507C9
:101FA0004CF4AC01460F511D67FD5A9581E0241792
:101FB00035070CF080E0089596E0899FF001112428
:101FC000E25BFD4F81E09281933009F080E008955B
:101FD00096E0899FF0011124E25BFD4F81E0928140
:101FE000943009F080E0089596E0899FF001112473
:101FF000E25BFD4F81E09281923009F080E008952C
:1020000096E0899FF0011124E25BFD4F81E092810F
:10201000953009F080E008952F923F925F926F9281
:102020007F928F929F92AF92BF92CF92DF92EF9268
:10203000FF920F931F93CF93DF931F92CDB7DEB71D
:10204000F82E162FD42EB22E011114C081E08F93DA
:1020500083E18F93E2EAF1E0FF93EF93ECEAF1E0A2
:10206000FF93EF930E94F2120F900F900F900F903A
:102070000F900F9090914E0240E1742E912C202EE3
:10208000332427FC309456E0552EE92DF0E0E2157C
:10209000F30514F580E1882E692C610E599EF0013C
:1020A0001124E25BFD4F8181882381F024E0A22E80
:1020B00038E1C32EE48003812B2D4D2D662D8F2D0D
:1020C00099830E94840F99818111792E9F5F9F705F
:1020D0008A9421F79394D9CF872D0F90DF91CF91D8
:1020E0001F910F91FF90EF90DF90CF90BF90AF9036
:1020F0009F908F907F906F905F903F902F9008956A
:102100000F930E940C1091E0803109F490E0892F28
:102110000F91089596E0899FF0011124E25BFD4F35
:102120008481089564E170E080E090E00E949E1751
:102130006B3071058105910528F4FB01E554FE4FD4
:102140008081089580E008951F93CF93DF931F92BD
:10215000CDB7DEB745E650E060E08EE492E00E9445
:10216000621140E06CE384E00E94FD0E40E06CE30D
:102170008CE10E94FD0E40E06CE384E30E94FD0EC2
:1021800040E06CE38CE40E94FD0E14E30E94921088
:1021900089830E94A10C4981612F0E94FD0E185075
:1021A000143FA1F70F90DF91CF911F910895EF9207
:1021B000FF921F93CF93DF931F92CDB7DEB7182FF7
:1021C00022E532E0E4E5F2E0CF010597DC018C91F5
:1021D000882339F0D9018C91810F8C938081810FF4
:1021E00080832A5F3F4F3696B2E0E43BFB0761F7FE
:1021F0002091AF02332727FD3095C901810F911D32
:1022000017FD9A9568E070E00E94611E7C01281B12
:10221000390B37FD0AC00E94921089830E94A10CDD
:1022200049816CEF610F0E94FD0EE092AF02809138
:10223000B202810F803248F48093B2020F90DF9196
:10224000CF911F91FF90EF90089580528093B2023A
:102250000F90DF91CF911F91FF90EF900C948F0E14
:1022600040E855E260E070E086EE91E00C94140BDB
:1022700041E050E060E083EB92E00E94621181E077
:102280008093B30208952091B30221110C94921807
:10229000089542E350E060E070E08AE491E00C943D
:1022A000431142E350E060E070E087E295E00C9477
:1022B000431142E350E060E070E08FEA90E00C945C
:1022C000431108954115510549F01416150634F4CB
:1022D000FC016083415051090196F7CF0895CF93D7
:1022E000DF939B01C52F0E94611EFB01D82F1E1694
:1022F0001F063CF45C2FB901CF010E946F11482FDB
:10230000C92FD05DE42FFC2FD193CF01DF91CF9166
:102310000895AF92BF92CF92DF92EF92FF920F9308
:102320001F93CF93DF935B01FA01102FFE2C0E94C5
:10233000611EEB016C011C161D061CF022303105DC
:1023400054F021503109E12C012FAF01B501CE012C
:102350000E948911FC01CF010196C114D10421F41E
:10236000CD2B11F4FF2021F020E32C0D208301C0A0
:102370001083DF91CF911F910F91FF90EF90DF902D
:10238000CF90BF90AF9008958F929F92AF92BF92DF
:10239000CF92EF920F931F93CF93DF934B015C018A
:1023A000C02F1E2DDC2D80E188169104A104B104FC
:1023B00018F4223031058CF021503109CD2EE12C5A
:1023C0000C2FC501B401E4E0969587957795679544
:1023D000EA95D1F70E94C411AC0194012F70332704
:1023E000CA0101962115310531F489288A288B28E4
:1023F00011F4112351F02A30310510F0DA5001C0E8
:10240000D0E3D20FFA01D08302C0FA01C083DF917A
:10241000CF911F910F91EF90CF90BF90AF909F9071
:102420008F900895CF92DF92EF92FF92CF936B013E
:102430007C01C22F80E1C816D104E104F10460F0F0
:10244000C701B601F4E09695879577956795FA955B
:10245000D1F70E941212AC01C6018F7099278A3001
:10246000910518F026EF2C0F01C020E3280FFA0188
:102470002193CF01CF91FF90EF90DF90CF900895FF
:10248000FB01DC012D91CD01222311F02193F9CF25
:10249000CF0108958F929F92AF92BF92CF92EF9209
:1024A000FF920F931F93CF93DF93FC01EB01DA01AF
:1024B00010E2812C912C0DE2F02E8881882309F402
:1024C00084C0853239F05E012FEFA21AB20A8083F0
:1024D000ED0179C089815E01803321F032E0A30EE5
:1024E000B11C05C083E0A80EB11C8A8110E390EDF9
:1024F000980F9A3078F4882E992487FC909490E372
:10250000891A9108E501888195012F5F3F4F590194
:1025100021E001C020E08C3681F134F4833609F4E7
:102520004EC0843669F051C08337F1F1883709F025
:102530004CC0ED0122966D917C9180E090E023C02B
:10254000ED0122968D919C9197FF05C09195819503
:102550009109F0823196222351F0EE24E394012F69
:102560009401AF016AE070E00E94891124C0AF01BC
:102570006AE070E00E946F111EC0ED0124966D911B
:102580007D918D919C91222351F0A1E6CA2EEE24DB
:10259000E394012F9401AF010E94C4110CC021E605
:1025A000AF010E94121207C0ED012296BF018D916A
:1025B0009C910E944012FC01DE01E5017ECFED01FD
:1025C00022968C9180833196F7CF1082DF91CF9144
:1025D0001F910F91FF90EF90CF90BF90AF909F9081
:1025E0008F900895CF93DF93CDB7DEB7A8970FB63E
:1025F000F894DEBF0FBECDBFFE01BD966191719113
:10260000AF01CE0101960E944A128E010F5F1F4F4B
:10261000F02EF094F80141918F01442331F060E0F5
:102620008F2D800F0E942615F5CF0E941815FFCF21
:1026300042E050E060E084EB92E00C9462119093F1
:10264000B5028093B4020895F999FECF8091B40247
:102650009091B5029C012F5F3F4F3093B5022093BC
:10266000B4020C94EA1ECF930E942413C82F0E9438
:1026700024132C2F30E0A901582BCA01CF910895C3
:10268000CF92DF92EF92FF92CF93DF930E942413B9
:10269000C82F0E942413D82F0E942413C82ED12C97
:1026A000E12CF12C7601DD24CC24DD2ACC2A0E94F9
:1026B0002413A7019601582BCA01B901DF91CF91CC
:1026C000FF90EF90DF90CF900895682FF999FECF9B
:1026D0008091B4029091B5029C012F5F3F4F3093DF
:1026E000B5022093B4020C94F21ECF93DF931F9295
:1026F000CDB7DEB799830E9465139981892F0F901A
:10270000DF91CF910C9465131F93CF93DF9300D08B
:10271000CDB7DEB7182F862F79839A830E94651371
:102720007981872F0E946513812F0E9465139A81FA
:10273000892F0F900F90DF91CF911F910C9465130B
:1027400041E150E060E086EB92E00E94621184E19A
:102750008093B60282E38093C2020895682F80912D
:10276000C6020E94551E81E0911180E008950F93EA
:102770001F930E9486092091C302222391F0209189
:10278000BD02362F321B3093C1022091B702309127
:10279000B8022F5F3F4F3093B8022093B7021092D8
:1027A000C3020091B9021091BA022091BB0230918C
:1027B000BC02601771078207930730F4061B0230D2
:1027C000C8F10E94F50B36C04091C2020091BD02D3
:1027D0001091BE022091BF023091C002040F111D62
:1027E000211D311D061717072807390748F00093E8
:1027F000B9021093BA022093BB023093BC0208C006
:102800006093B9027093BA028093BB029093BC02AA
:102810006093BD027093BE028093BF029093C0028A
:1028200081E08093C3028091C6028F5F8093C602CD
:1028300081E001C080E01F910F91089545E050E0D4
:1028400060E087EC92E00E94621162E089E00E9401
:10285000451C62E085E00E94451C62E088E00E9421
:10286000451C62E08AE00E94451C62E082E10E9411
:10287000451C62E083E10C94451C43B186B12FB145
:1028800090E0809590958074992734E09595879590
:102890003A95E1F730E020953095207C332756E0DB
:1028A000359527955A95E1F7822B932B40954077E4
:1028B000842B4091C7022091C8022827342F3095DD
:1028C00023232093C802382F309534233093C90234
:1028D0008093C702247721F42091CB02211106C0F6
:1028E0008093CA022AE02093CB0202C01092CA024F
:1028F000847741F08091CB02882331F0815080931E
:10290000CB0208951092CB0208958091C7020895DA
:102910008091C80208958091C902089508958EBDDE
:1029200000000DB407FEFDCF8EB50895CF92DF9263
:10293000EF92FF920F931F93CF93DF9340E054E009
:1029400060E08CEC92E00E9462110E94B41C8CB595
:102950008C7F8CBD8DB581608DBD61E084E00E946F
:10296000451C61E086E00E94451C61E08CE00E940D
:10297000451C61E08CE00E947E1C61E070E080E01C
:1029800090E00E94B50960E08CE00E947E1C6AE045
:1029900070E080E090E00E94B50961E08CE00E9468
:1029A0007E1CE3E5F9E0E491F0E0EE0FFF1FE5594E
:1029B000F64FC591D491E1E5F9E0E491F0E0EE0F36
:1029C000FF1FE559F64F05911491E5E3F9E0D49026
:1029D000E3E3F9E0C49088818D298883F801808140
:1029E0009C2D9095892380838881D0948D21888324
:1029F00024E0E22E23E0F22EF70184910E948F144E
:102A0000FFEFEF1AFF0A81E1E81683E0F806A1F76D
:102A1000F80180818C29808388818D218883DF91D2
:102A2000CF911F910F91FF90EF90DF90CF9008957D
:102A3000CF93DF93CCECD2E089910E948F1486E093
:102A4000CC3CD807C9F7DF91CF910895893110F5B3
:102A5000683000F590E8699FB001112495E04902C3
:102A6000A001112420E030E04F5E5C4F95E0899F8B
:102A7000600D711D112464537D4FFA01E20FF31FA5
:102A8000E491DB01A20FB31FEC932F5F3F4F253082
:102A9000310599F708951F93CF93DF93CDB7DEB734
:102AA000A8970FB6F894DEBF0FBECDBFAE014E5C47
:102AB0005F4F68A979A9CE0101960E944A1210E0E1
:102AC0008EA5810FE1E0F0E0EC0FFD1FE10FF11D9D
:102AD0004081442329F06FA50E9426151F5FF0CF87
:102AE000A8960FB6F894DEBF0FBECDBFDF91CF9191
:102AF0001F9108958CEC92E0FC0100241192119238
:102B0000119211920394D1F708952F923F924F9210
:102B10005F926F927F928F929F92AF92BF92CF926D
:102B2000DF92EF92FF920F931F93CF93DF93FA01FF
:102B3000A490EA01229631965490EA2CE694E69409
:102B4000E694F12CA0E0B0E0772767FD709599241A
:102B50009394992787FD9095A51508F051C0AD0174
:102B6000460F571F40345105B8F49A0113E03595CC
:102B700027951A95E1F73695322F22273795279515
:102B800047705527892C01C0880C4A95EAF7FE0149
:102B9000B12C280F391F12C0CE0DDF1D2FC08601AA
:102BA000040F151F00381105F0F076944F5F5F4F4A
:102BB00048305105A1F7D8E0BD0E3196EF01BA14A7
:102BC000E8F4649040E050E0C0E87C2ECB2DD0E0EB
:102BD0006E01C80ED91E1E01220E331EE101C45320
:102BE000DD4F1E01DCCF172D1621F9F28101040FF4
:102BF000151FE801488048284882D7CF1196ACCFEE
:102C0000DF91CF911F910F91FF90EF90DF90CF90C8
:102C1000BF90AF909F908F907F906F905F904F90FC
:102C20003F902F9008952F923F924F925F926F9214
:102C30007F928F929F92AF92BF92CF92DF92EF924C
:102C4000FF920F931F93CF93DF9300D000D0CDB7A7
:102C5000DEB7FA018490DA01129631963490A82CEE
:102C6000A694A694A694B12C1C821B82772767FD9C
:102C7000709544244394992787FD90957C01F4E056
:102C8000EF1AF1081B81131508F057C04B815C81C6
:102C9000460F571F40345105B8F49A0113E035959B
:102CA00027951A95E1F73695322F222737952795E4
:102CB00047705527542C01C0550C4A95EAF7FD0181
:102CC000912C280F391F12C0AA0DBB1D2FC08601E1
:102CD000040F151F00361105E8F076944F5F5F4F23
:102CE00048305105A1F7B8E09B0E3196DF019814EA
:102CF000E8F4649040E050E0A0E87A2E092D10E05E
:102D00006801CE0CDF1C020F131F04531D4F1A83E2
:102D10000983DDCF172D162101F309811A81040FD4
:102D2000151FD8012C9025282C92D7CF0B811C8100
:102D30000F5F1F4F1C830B83A5CF0F900F900F9039
:102D40000F90DF91CF911F910F91FF90EF90DF9047
:102D5000CF90BF90AF909F908F907F906F905F903B
:102D60004F903F902F9008954BE952E16CE776EF3A
:102D70008CEC96E00C94C11DAB01BC018CEC96E090
:102D80000C94C11D2F923F924F925F926F927F924F
:102D90008F929F92AF92BF92CF92DF92EF92FF926B
:102DA0000F931F93CF93DF93C8EDD6E048805980EF
:102DB0006A807B80A0EDB6E0CD90DD90ED90FC9038
:102DC00084ED282E86E0382EF10180809180A2804B
:102DD000B380D501C4018C259D25AE25BF254CECC3
:102DE00056E0FA0100811181228133813F778027EB
:102DF0009127A227B3278C019D01000F111F221FCD
:102E0000331F082719272A273B27D301C201B6956C
:102E1000A7959795879584259525A625B72580277D
:102E20009127A227B327C082D182E282F3828883CE
:102E30009983AA83BB832C013D01F1E04F225524E5
:102E4000662477247094609450944094411C511CE3
:102E5000611C711C4091DC065091DD066091DE061C
:102E60007091DF0644215521662177214825592597
:102E70006A257B25E0EDF6E040835183628373830E
:102E8000AC01BD01EAE0440F551F661F771FEA95AC
:102E9000D1F740275127622773270091E006109150
:102EA000E1062091E2063091E30604211521262156
:102EB00037214027512762277327F101408351832F
:102EC00062837383052F162F272F33270C0D1D1DAB
:102ED0002E1D3F1DBC01CD0160277127822793273E
:102EE0000170112722273327CC24DD247601C01A54
:102EF000D10AE20AF30A0091E4061091E506209156
:102F0000E6063091E706C022D122E222F3226C25A8
:102F10007D258E259F25DF91CF911F910F91FF90E9
:102F2000EF90DF90CF90BF90AF909F908F907F9069
:102F30006F905F904F903F902F900895CF93DF93C5
:102F400000D000D0CDB7DEB79B01AC0169833A83D6
:102F50004B835C830E94C21629813A814B815C813C
:102F60000E94751E97FF07C090958095709561959A
:102F70007F4F8F4F9F4F0F900F900F900F90DF91CB
:102F8000CF9108954AE150E060E088EE96E00E941B
:102F9000621161E084E10E94451C61E085E10E94CC
:102FA000451CE1E6F9E0E491F0E0EE0FFF1FE55982
:102FB000F64F859194919093FD068093FC06E3E48F
:102FC000F9E0E491E093FE06E2E6F9E0E491F0E056
:102FD000EE0FFF1FE559F64F8591949190930007EE
:102FE0008093FF06E4E4F9E0E491E0930107109296
:102FF0009000A1E9B0E01C9210928000E1E8F0E0BE
:1030000010828C9188608C938C9181608C938081EC
:1030100088608083808181608083E5E6F0E0808144
:10302000877F8083E4E6F0E08081877F8083089556
:1030300090E0FC01E851F94F1182FC01EE0FFF1FF7
:10304000E80FF91FE851F94FA489B5899C91868949
:10305000809589238C9308954115510591E0690766
:10306000710548F036E076956795579547953A95FE
:10307000D1F793E001C091E0415051096109710914
:10308000811110C080919100887F892B80939100DD
:1030900050939900409398008091710082608093D2
:1030A0007100089580918100887F892B8093810031
:1030B000509389004093880080916F0082608093D4
:1030C0006F000895CF93C82F813021F48091F706C7
:1030D000811126C0E62FF0E0EE0FFF1FEF5EF74FE5
:1030E0002591349140E050E0C11108C02093EF06D3
:1030F0003093F0064093F1065093F206EC2FF0E087
:10310000E851F94F81E0818360E074E284EF90E060
:103110000E94971EBA01A9018C2FCF910C942C18F4
:10312000CF910895CF93DF93EC018091F706811141
:103130002DC081E08093F706DE01AA0FBB1F9A0124
:10314000AB010E94BC1E28EE33E040E050E00E943C
:10315000751E2115310541055105C1F02093F80672
:103160003093F9064093FA065093FB069E0140E027
:1031700050E060E072E18AE790E00E94971EBA0199
:10318000A90181E0DF91CF910C942C18DF91CF91B0
:103190000895811106C0909171009D7F90937100F8
:1031A00005C090916F009D7F90936F0090E0FC01AF
:1031B000EE0FFF1FE80FF91FE851F94FA489B589F9
:1031C0009C918689809589238C93089580E00E9444
:1031D000C91881E00E94C9181092E8060895CF939B
:1031E000DF93C6ECD1E0E091F506F091F606BF0161
:1031F0006F5F7F4F7093F6066093F5062491922FD0
:10320000907F822F8F70903971F028F49038F1F40C
:103210000E941818E8CF903E81F0903FB9F4DF91FA
:10322000CF910C94E6183296F093F606E093F506EB
:10323000FB0164910E946218D6CF8091F3069091B1
:10324000F4069093F6068093F506CDCF97FD30C037
:103250003296F093F606E093F506FB016491A62FF3
:10326000B0E0B22B2091EF063091F0064091F106CC
:103270005091F2060E94BC1E6C507E4F8F4F9F4FA4
:1032800028EE33E040E050E00E94751E2115310524
:103290004105510511F581E090E0A0E0B0E0809398
:1032A000EB069093EC06A093ED06B093EE061DC0DE
:1032B0008091F3069091F406681B790B7F936F93CE
:1032C0001F922F93DF93CF930E94F2120F900F90D3
:1032D0000F900F900F900F9086CF2093EB063093B6
:1032E000EC064093ED065093EE06DF91CF910895E2
:1032F00081E00E94C9181092F70608951F920F925C
:103300000FB60F9211242F933F934F935F936F93B8
:103310007F938F939F93AF93BF93EF93FF9380918E
:10332000E906882349F0E091FC06F091FD068081D2
:103330009091FE06892780838091EB069091EC06A0
:10334000A091ED06B091EE060197A109B109809315
:10335000EB069093EC06A093ED06B093EE06892B56
:103360008A2B8B2B11F40E94EF18FF91EF91BF91E4
:10337000AF919F918F917F916F915F914F913F910D
:103380002F910F900FBE0F901F9018951F920F92C4
:103390000FB60F9211242F933F934F935F936F9328
:1033A0007F938F939F93AF93BF93EF93FF93E0919E
:1033B000FF06F091000780819091010789278083A3
:1033C0008091F7068823C9F08091F8069091F9065C
:1033D000A091FA06B091FB060197A109B10980936B
:1033E000F8069093F906A093FA06B093FB06892B92
:1033F0008A2B8B2B11F40E947819FF91EF91BF91CA
:10340000AF919F918F917F916F915F914F913F917C
:103410002F910F900FBE0F901F9018954FE050E026
:1034200060E082E097E00E94621180E094E0909377
:1034300004078093030780E094E39093060780934A
:10344000050788E790E0909308078093070710929C
:103450000A071092090788E080930B0780930C07F6
:1034600081E080930D07089580910F070E94DC0F83
:10347000882329F080910D07181674F00AC08091F6
:103480000F070E94E80F882351F080910D0718164E
:103490001CF48CE890E005C084E690E002C088E768
:1034A00090E09093080780930707089540910D07D7
:1034B00020910707309108074203C001439F900DF8
:1034C00011242091030730910407820F931F811567
:1034D00025E092072CF0909304078093030709C01E
:1034E00080E095E090930407809303074195409313
:1034F0000D0720910B0783E690E0821B910927FDC1
:103500009395982F88272091030730910407281757
:1035100039074CF0909304078093030780910D07BF
:10352000819580930D070C94341A0F931F93CF93BA
:10353000DF93D0910407C0910A07CF5F109106076F
:1035400060910C07610F0C2F21E040910B078D2F2C
:103550000E948010811114C08091090790910A0780
:10356000C29690930A07809309072091050730912E
:103570000607280F391F30930607209305072FC031
:1035800060910C07610F0C2F21E040910B078D2FEC
:103590000E940C1080930F070E94341A8091090733
:1035A00090910A07892B11F00E94591180910F0701
:1035B0000E948A10992787FD909520910C07821B05
:1035C000910927FD939510920507809306071092A5
:1035D0000A071092090710920E0710920207DF9156
:1035E000CF911F910F910895CF93209109073091AA
:1035F0000A071216130634F482E080930207CF9173
:103600000C94951A2E5C3F4F30930A0720930907BC
:103610008091050790910607820F931F90930607EC
:1036200080930507292F332727FD3A95203131054F
:10363000ACF4C0E1C21B8C2F0E94D7108C2F9927AD
:1036400087FD9095982F88272091050730910607D0
:10365000280F391F3093060720930507CF9108954F
:10366000CF9340910F0760910B07809104070E9450
:10367000BE0F811106C082E080930207CF910C94A7
:10368000951A80910F070E94F40F882341F18091D1
:103690000F070E948A10992787FD9095089710922E
:1036A000050780930607282F382F330F330B20315F
:1036B0003105ACF4C0E1C81B8C2F0E94D7108C2FB1
:1036C000992787FD9095982F88272091050730919D
:1036D0000607280F391F30930607209305070E941D
:1036E0008514817271F083E00E94AE138823D9F1B2
:1036F00080910E078F5F67E00E94551E90930E0722
:1037000032C00E948B14817271F180910F070E9468
:10371000001020910E07882389F0822F90E0809579
:10372000909548EC489F9001499F300D11243093AB
:103730000A07209309070E9451110DC03AE6239F02
:10374000C001921B1124885C910990930A07809311
:1037500009070E9449110E94970E81E08093020799
:10376000CF910C94F41ACF91089580910207813083
:1037700039F020F0823031F40C94951A0C94301BFF
:103780000C94F41A1F928F938FE991E09F938F937B
:103790000E94F2120F900F900F900F9008950E94C8
:1037A000561A0C94B51B80910E070C94AC0D8091A9
:1037B0000607282F382F330F330B81E020343105D3
:1037C0000CF480E008950E94D71B81111CC08091E9
:1037D0000207811105C08AE00E94AE1381110AC060
:1037E0006091060720910D07409110078091040712
:1037F0000C94740D809110078F5F63E00E94551E3A
:1038000090931007EDCF08950E94E31B0C94D31BF7
:1038100090E0FC013197EF30F105B0F5EA5AFF4F27
:103820000C94B61E809180008F7703C08091800039
:103830008F7D80938000089580918000877FF9CFED
:1038400084B58F7702C084B58F7D84BD0895809143
:1038500090008F7707C0809190008F7D03C080918A
:103860009000877F8093900008958091C0008F77AB
:1038700003C08091C0008F7D8093C0000895809127
:10388000C200877F8093C2000895CF93DF9390E0BA
:10389000FC01E15DF64F2491FC01E35BF64F84915E
:1038A000882349F190E0880F991FFC01E758F64FF3
:1038B000A591B4918559964FFC01C591D4919FB7BC
:1038C000611108C0F8948C91209582238C93888193
:1038D00082230AC0623051F4F8948C91322F3095D3
:1038E00083238C938881822B888304C0F8948C91E5
:1038F000822B8C939FBFDF91CF9108950F931F93DD
:10390000CF93DF931F92CDB7DEB7282F30E0F901B8
:10391000EF5EF64F8491F901E15DF64F1491F901E4
:10392000E35BF64F04910023C9F0882321F06983FB
:103930000E94081C6981E02FF0E0EE0FFF1FE5599F
:10394000F64FA591B4919FB7F8948C91611103C083
:103950001095812301C0812B8C939FBF0F90DF9125
:10396000CF911F910F910895CF93CFB7F894809185
:103970001107811127C0EEE5F9E08491E0E4F9E058
:103980009491E82FF0E0EE0FFF1FE758F64FA59156
:10399000B4918C91892321F461E081E10E947E1C25
:1039A00061E081E10E94451C8CB580618CBD8CB5C5
:1039B00080648CBD61E08FE00E94451C61E080E185
:1039C0000E94451C809111078F5F80931107CFBF24
:1039D000CF9108954F925F926F927F928F929F92B4
:1039E000AF92BF92CF92DF92EF92FF920F931F930D
:1039F000FC0184849584A684B78404811581268182
:103A000037814084518462847384B301A2014027CA
:103A1000512762277327C080D180E280F380E89429
:103A2000F7F84C255D256E257F256A017B01CC0CBE
:103A3000DD1CEE1CFF1CC426D526E626F726B501A4
:103A4000A4017695679557954795482559256A2588
:103A50007B254C255D256E257F25008311832283E0
:103A6000338344875587668777874A015B0181E006
:103A700088229924AA24BB24B094A0949094809482
:103A8000811C911CA11CB11C0089118922893389D8
:103A9000082119212A213B21042515252625372512
:103AA00004831583268337832AE0440F551F661F3E
:103AB000771F2A95D1F74C255D256E257F25048932
:103AC000158926893789082119212A213B21402778
:103AD00051276227732740875187628773871F9119
:103AE0000F91FF90EF90DF90CF90BF90AF909F909D
:103AF0008F907F906F905F904F900895FC01408170
:103B00005181628173817F77452B462B472BC1F50D
:103B10004481558166817781452B462B472B81F562
:103B20004085518562857385452B462B472B41F592
:103B30004485558566857785452B462B472B01F5B2
:103B400044E550E060E070E040835183628373831A
:103B500049E450E060E070E04483558366837783F6
:103B60004EE450E060E070E04087518762877387E1
:103B700049E550E060E070E04487558766877787C5
:103B80000895CF92DF92EF92FF920F931F93CF93FE
:103B9000DF93EC01488359836A837B838889998901
:103BA000AA89BB898C839D83AE83BF838C899D89C1
:103BB000AE89BF8988879987AA87BB87888D998DA9
:103BC000AA8DBB8D8C879D87AE87BF87C12CD12CDA
:103BD0007601C394F601E370FF27EE0FFF1FEE0F8F
:103BE000FF1FEC0FFD1FD6011197A370BB27AA0F73
:103BF000BB1FAA0FBB1FAC0FBD1F8D919D910D90D8
:103C0000BC91A02D9C01AD016EE15695479537956D
:103C100027956A95D1F7282739274A275B2765E634
:103C200079E887E09CE60E94451E6C0D7D1D8E1D87
:103C30009F1D0081118122813381062717272827A4
:103C4000392700831183228333838FEFC81AD80A60
:103C5000E80AF80A88E0C816D104E104F10409F082
:103C6000B9CFCE010E947E1D08E010E0CE010E9477
:103C7000EA1C01501109D1F7DF91CF911F910F91EB
:103C8000FF90EF90DF90CF900895DB018F939F938B
:103C90000E94BC1EBF91AF91A29F800D911DA39F5A
:103CA000900DB29F900D11240895991B79E004C0E6
:103CB000991F961708F0961B881F7A95C9F780956B
:103CC000089597FB072E16F4009407D077FD09D0CE
:103CD0000E94C71E07FC05D03EF4909581959F4F2A
:103CE0000895709561957F4F0895A1E21A2EAA1B41
:103CF000BB1BFD010DC0AA1FBB1FEE1FFF1FA2179C
:103D0000B307E407F50720F0A21BB30BE40BF50B98
:103D1000661F771F881F991F1A9469F76095709521
:103D2000809590959B01AC01BD01CF010895052EB2
:103D300097FB1EF400940E94AE1E57FD07D00E9410
:103D4000751E07FC03D04EF40C94AE1E50954095A2
:103D5000309521953F4F4F4F5F4F08959095809537
:103D6000709561957F4F8F4F9F4F0895EE0FFF1F06
:103D70000590F491E02D09940E94DB1EA59F900D03
:103D8000B49F900DA49F800D911D11240895AA1B2E
:103D9000BB1B51E107C0AA1FBB1FA617B70710F036
:103DA000A61BB70B881F991F5A95A9F78095909568
:103DB000BC01CD010895A29FB001B39FC001A39F94
:103DC000700D811D1124911DB29F700D811D112454
:103DD000911D0895F999FECF92BD81BDF89A99275A
:103DE00080B50895262FF999FECF1FBA92BD81BDE7
:103DF00020BD0FB6F894FA9AF99A0FBE019608956D
:043E0000F894FFCF64
:103E040000C18081000000FFFFFFFF00E10000000F
:103E14000000002E021402FA01E001C601AC019276
:103E240001760168015701A00292028402CA02BC11
:103E340002AE025C02520248027A0270026602007A
:103E4400000000330A7A0A5D0A6D0A490A5A0A47D1
:103E5400414D45204F56455200434F4D504C45541B
:103E64004521007265732E637070002573282564E4
:103E7400296E756D203C20330A002573282564299A
:103E84006E756D203C20370A004265737400205221
:103E94006563004A756D700025346400257820251B
:103EA400780073746167652E63707000257328252C
:103EB40064296D7920213D20300A000101020203AA
:103EC4000304040505055B536E64202578202578DA
:023ED4005D008F
:00000001FF
